:020000040000FA
:0400000007EF00F016
:100008003B82D1ED02F0A3EF02F01AC01EF01BC034
:100018001FF01CC020F01DC021F0060ED8901E361F
:100028001F3620362136E82EF9D71E5000080C6EF0
:10003800240E1F540D6EF40E20540E6E000E215423
:100048000F6E1AC022F01BC023F01CC024F01DC084
:1000580025F0060ED8902236233624362536E82E8B
:10006800F9D722C010F023C011F024C012F025C027
:1000780013F006EC01F00CC039F00DC03AF03A0468
:10008800D8A03BD01AC01EF01BC01FF01CC020F027
:100098001DC021F0040ED8901E361F36203621369A
:1000A800E82EF9D71E5000080C6E240E1F540D6E52
:1000B800F40E20540E6E000E21540F6E1AC022F05A
:1000C8001BC023F01CC024F01DC025F0040ED890DE
:1000D8002236233624362536E82EF9D722C010F0EA
:1000E80023C011F024C012F025C013F006EC01F073
:1000F8000CC039F00DC03AF0AC843A04D8B0120004
:1001080039C0AFFFAC98AB8E948E948CAB88AC8A18
:1001180012006CEC01F0076E0750086E096A375040
:100128003810D8A410D00A0E08180910D8A404D082
:10013800000E366E010E03D0000E366E000E356EC0
:10014800374A382A120037043810D8A40FD008C00C
:1001580001F009C002F0000E046E0A0E036EBEEC38
:1001680002F001C031F002C032F0EAD7020E3718AF
:100178003810D8A405D00850312609503222E0D7CB
:10018800030E37183810D8A41BD035043610D8A45D
:1001980011D031C001F032C002F0FF0E046E0368C6
:1001A800BEEC02F001C031F002C032F0000E366E33
:1001B800000E356E0A0E08180910D8B4B9D7BCD786
:1001C800040E37183810D8A40FD008C001F009C0A1
:1001D80002F0000E046E0A0E036EBEEC02F001C0BF
:1001E80033F002C034F0ACD7050E37183810D8A455
:1001F80012000850332609503422000E386E000EC3
:10020800376E1200000E156E13AE0AD0131E121EA2
:10021800111E106C000E112212221322010E156EEF
:100228000FAE0AD00F1E0E1E0D1E0C6C000E0D22F6
:100238000E220F22010E151A000E166E000E176EF2
:10024800000E186E000E196E1050111012101310B7
:10025800D8B42AD0010E146E06D0D89010361136B4
:1002680012361336142A13AEF8D7D8901636173626
:100278001836193610500C5C11500D5812500E5883
:1002880013500F58D8A009D010500C5E11500D5AB9
:1002980012500E5A13500F5A1680D8901332123239
:1002A80011321032142EE1D71550D8B408D0191EC7
:1002B800181E171E166C000E17221822192216C0B7
:1002C8000CF017C00DF018C00EF019C00FF0120096
:1002D8009EAAFED7AECF01F0026A310EAE18D8A49E
:1002E80004D0000E026E010E016E320EAE18D8A4B4
:1002F80004D0000E026E020E016E330EAE18D8A4A2
:1003080004D0000E026E030E016E340EAE18D8A48F
:1003180004D0000E026E040E016E350EAE18D8A47D
:1003280004D0000E026E050E016E360EAE18D8A46B
:1003380004D0000E026E060E016E370EAE18D8A459
:1003480004D0000E026E070E016E380EAE18D8A447
:1003580004D0000E026E080E016E390EAE18D8A435
:1003680004D0000E026E090E016E300EAE18D8A42D
:1003780004D0000E026E000E016E2D0EAE18D8A429
:1003880004D0000E026E0A0E016E01501200000E1B
:10039800936E948E948C94908290000E956E0F0EAE
:1003A800C16E8188818A818C818E800E1A6E250E9D
:1003B8001B6E000E1C6E000E1D6E09EC00F0F28C18
:1003C8009D8AF28E000E936E000E956E0F0EC16E12
:1003D8008188818A818C818E33C00CF034C00DF005
:1003E800000E0F6E0A0E0E6E6BEC02F0270E0C2438
:1003F800D96E000E0D20DA6EDF50836E819E1A0EC4
:10040800266EF80EE82EFED7262EFCD700D0818E59
:1004180033C00CF034C00DF0000E0F6E0A0E0E6ED5
:1004280029EC02F0270E0C24D96E000E0D20DA6E8E
:10043800DF50836E819C1A0E266EF80EE82EFED7CA
:10044800262EFCD700D0818CC7D7000E116E0FAEB8
:1004580006D00E6C0F1ED8B00F2A010E116E0DAE0D
:1004680006D00C6C0D1ED8B00D2A010E111A000E04
:10047800136E000E126E0E500F10D8B41CD0010E61
:10048800106E04D0D8900E360F36102A0FAEFAD759
:10049800D890123613360E500C5C0F500D58D8A059
:1004A80005D00E500C5E0F500D5A1280D8900F32A6
:1004B8000E32102EEDD71150D8B404D0126C131E82
:1004C800D8B0132A12C00CF013C00DF01200000EA1
:1004D800116E0DAE06D00C6C0D1ED8B00D2A010E93
:1004E800116E0FAE04D00E6C0F1ED8B00F2A0E502E
:1004F8000F10D8B418D0010E106E04D0D8900E3654
:100508000F36102A0FAEFAD70E500C5C0F500D584C
:10051800D8A004D00E500C5E0F500D5AD8900F3250
:100528000E32102EF1D71150D8B404D00C6C0D1E19
:10053800D8B00D2A0CC00CF00DC00DF01200C20E80
:10054800F66E050EF76E000EF86E00EE27F010EE50
:100558000AF00900F5CFEEFFE550E150FAE100EEB0
:1005680031F0080EEE6AE806FDE13B903B9200018F
:10057800CBEF01F001500302F3CF05F0F4CF06F002
:1005880001500402F350062602500302F3500626D7
:1005980005C001F006C002F012000600F3CF0AF011
:1005A800F4CF0BF09EAA03D09E9A8DEC00F00BC0FE
:1005B800F4FF0AC0F3FF3B921100BF86DBCFE6EDE4
:0405C800FD87FFE7C5
:020000040020DA
:08000000FFFFFFFFFFFFFFFF00
:020000040030CA
:0E000000FF071F1FFF8385FF0FC00FE00F409B
:00000001FF
