:020000040000FA
:0400000007EF00F016
:100008003582E2ED01F0F2EF01F01AC01EF01BC0DC
:100018001FF01CC020F01DC021F0060ED8901E361F
:100028001F3620362136E82EF9D71E5000080C6EF0
:10003800240E1F540D6EF40E20540E6E000E215423
:100048000F6E1AC022F01BC023F01CC024F01DC084
:1000580025F0060ED8902236233624362536E82E8B
:10006800F9D722C010F023C011F024C012F025C027
:1000780013F08DEC00F00CC033F00DC034F03404F4
:10008800D8A03BD01AC01EF01BC01FF01CC020F027
:100098001DC021F0040ED8901E361F36203621369A
:1000A800E82EF9D71E5000080C6E240E1F540D6E52
:1000B800F40E20540E6E000E21540F6E1AC022F05A
:1000C8001BC023F01CC024F01DC025F0040ED890DE
:1000D8002236233624362536E82EF9D722C010F0EA
:1000E80023C011F024C012F025C013F08DEC00F0ED
:1000F8000CC033F00DC034F0AC843404D8B0120016
:1001080033C0AFFFAC98AB8E948E948CAB88AC8A1E
:100118001200000E156E13AE0AD0131E121E111E09
:10012800106C000E112212221322010E156E0FAE52
:100138000AD00F1E0E1E0D1E0C6C000E0D220E2274
:100148000F22010E151A000E166E000E176E000E05
:10015800186E000E196E1050111012101310D8B42A
:100168002AD0010E146E06D0D890103611361236E9
:100178001336142A13AEF8D7D89016361736183611
:10018800193610500C5C11500D5812500E5813505F
:100198000F58D8A009D010500C5E11500D5A1250AB
:1001A8000E5A13500F5A1680D89013321232113249
:1001B8001032142EE1D71550D8B408D0191E181EC5
:1001C800171E166C000E17221822192216C00CF0E2
:1001D80017C00DF018C00EF019C00FF012009EAA3B
:1001E800FED7AECF01F0026A310EAE18D8A404D003
:1001F800000E026E010E016E320EAE18D8A404D0A5
:10020800000E026E020E016E330EAE18D8A404D092
:10021800000E026E030E016E340EAE18D8A404D080
:10022800000E026E040E016E350EAE18D8A404D06E
:10023800000E026E050E016E360EAE18D8A404D05C
:10024800000E026E060E016E370EAE18D8A404D04A
:10025800000E026E070E016E380EAE18D8A404D038
:10026800000E026E080E016E390EAE18D8A404D026
:10027800000E026E090E016E300EAE18D8A404D01E
:10028800000E026E000E016E2D0EAE18D8A404D01A
:10029800000E026E0A0E016E01501200000E936EDF
:1002A800948E948C94908290000E956E0F0EC16E71
:1002B800800E1A6E250E1B6E000E1C6E000E1D6E33
:1002C80009EC00F0F28C9D8AF28E000E936E000EFF
:1002D800956E0F0EC16E839283948396839A839052
:1002E80003002F043010D8A4FCD7000E286E280E67
:1002F800276E000E2A6E000E296E04D0FDEC01F068
:10030800294A2A2A2750295C2A50800A266E285012
:10031800800A2658D8A0F2D7000E306E000E2F6E35
:10032800E0D7F3EC00F0076E0750086E096A315009
:100338003210D8A40BD00A0E08180910D8A402D07D
:10034800839A01D0838A314A322A1200310432104A
:10035800D8A40FD008C001F009C002F0000E046E46
:100368000A0E036ECFEC01F001C02BF002C02CF096
:10037800EAD7020E31183210D8A4120008502B26E2
:1003880009502C22000E326E000E316E000E306EB7
:10039800010E2F6E120001500302F3CF05F0F4CFC7
:1003A80006F001500402F350062602500302F350EF
:1003B800062605C001F006C002F012000600F3CFC1
:1003C8000AF0F4CF0BF09EAA03D09E9A95EC01F0A8
:1003D8000BC0F4FF0AC0F3FF3592110000EE2BF0BA
:1003E800080EEE6AE806FDE135903592000152EFFD
:1003F80001F08380C80E00D0E82EFDD78390C80E88
:0804080000D0E82EFDD7120020
:020000040020DA
:08000000FFFFFFFFFFFFFFFF00
:020000040030CA
:0E000000FF071F1FFF8385FF0FC00FE00F409B
:00000001FF
