:020000040000FA
:0400000007EF00F016
:100008002E8266ED01F033EF01F012C016F013C036
:1000180017F014C018F015C019F0060ED89016364F
:10002800173618361936E82EF9D716500008046E18
:10003800240E1754056EF40E1854066E000E19544B
:10004800076E12C01AF013C01BF014C01CF015C0C4
:100058001DF0060ED8901A361B361C361D36E82EB3
:10006800F9D71AC008F01BC009F01CC00AF01DC05F
:100078000BF08DEC00F004C02CF005C02DF02D0421
:10008800D8A03BD012C016F013C017F014C018F057
:1000980015C019F0040ED8901636173618361936CA
:1000A800E82EF9D716500008046E240E1754056E72
:1000B800F40E1854066E000E1954076E12C01AF08A
:1000C80013C01BF014C01CF015C01DF0040ED8900E
:1000D8001A361B361C361D36E82EF9D71AC008F01A
:1000E8001BC009F01CC00AF01DC00BF08DEC00F01D
:1000F80004C02CF005C02DF0AC842D04D8B012003B
:100108002CC0AFFFAC98AB8E948E948CAB88AC8A25
:100118001200000E0D6E0BAE0AD00B1E0A1E091E31
:10012800086C000E09220A220B22010E0D6E07AE82
:100138000AD0071E061E051E046C000E05220622A4
:100148000722010E0D1A000E0E6E000E0F6E000E25
:10015800106E000E116E085009100A100B10D8B45A
:100168002AD0010E0C6E06D0D890083609360A3609
:100178000B360C2A0BAEF8D7D8900E360F36103641
:1001880011360850045C095005580A5006580B509F
:100198000758D8A009D00850045E0950055A0A50DB
:1001A800065A0B50075A0E80D8900B320A32093281
:1001B80008320C2EE1D70D50D8B408D0111E101EED
:1001C8000F1E0E6C000E0F22102211220EC004F01A
:1001D8000FC005F010C006F011C007F012001AECAD
:1001E80001F0000E936E000E956E0F0EC16E8188A1
:1001F800818A818C818E79EC01F00009D8B40CD009
:1002080048EC01F01E6E1F6A200E1E24D96E000EE7
:100218001F20DA6EDF50836E819E1A0E1E6EF80E56
:10022800E82EFED71E2EFCD700D0E4D7000E936E22
:10023800948E948C94908290000E956E0F0EC16EE1
:100248008188818A818C818E800E126E250E136EB4
:10025800000E146E000E156E09EC00F01200E60E8A
:10026800F66E020EF76E000EF86E00EE20F010EE3D
:100278000CF00900F5CFEEFFE550E150FAE12E90C1
:100288002E920001F3EF00F09EAAFED7AECF04F045
:10029800056A310EAE18D8A404D0000E056E010E02
:1002A800046E045012009EAAFED7AECF01F0026A77
:1002B800310EAE18D8A404D0000E026E010E016EE5
:1002C800015012000600F2A208D0828057EC01F01B
:1002D800036E03502A6E2B6AF2922E921100BF868B
:1002E800DBCFE6EDFD87FFE70500000E9EBA010EA5
:0202F8001200F2
:020000040020DA
:08000000FFFFFFFFFFFFFFFF00
:020000040030CA
:0E000000FF071F1FFF8385FF0FC00FE00F409B
:00000001FF
